:020000040800F2
:1000000000000220D10100086D0200086D02000806
:100010006D0200086D0200086D020008000000007B
:100020000000000000000000000000006D02000859
:100030006D020008000000006D0200086D0200085B
:100040006D0200086D0200086D0200086D020008D4
:100050006D0200086D0200086D0200086D020008C4
:100060006D0200086D0200086D0200086D020008B4
:100070006D0200086D0200086D0200086D020008A4
:100080006D0200086D0200086D0200086D02000894
:100090006D0200086D0200086D0200086D02000884
:1000A0006D0200086D0200086D0200086D02000874
:1000B0006D0200086D0200086D0200086D02000864
:1000C0006D0200086D0200086D0200086D02000854
:1000D0006D0200086D0200086D0200086D02000844
:1000E0006D0200086D0200086D0200086D02000834
:1000F0006D0200086D0200086D0200086D02000824
:100100006D0200086D0200086D0200086D02000813
:100110006D0200086D0200086D0200086D02000803
:100120006D0200086D0200086D0200086D020008F3
:100130006D0200086D0200086D0200086D020008E3
:100140006D0200086D0200086D0200086D020008D3
:100150006D0200086D0200086D0200086D020008C3
:100160006D0200086D0200086D0200086D020008B3
:100170006D0200086D0200086D020008000000001A
:080180006D0200086D02000889
:1001880080B483B000AF094B1A68094B1B6813444D
:1001980005221A44074B1B681A44074B1B68134473
:1001A8007B607B6801337B60FBE700BF00000020B9
:1001B80004000020080000200C00002080B400AFDC
:1001C80000BFBD4680BC704780B584B000AF002337
:1001D800FB600023BB6000237B6000233B601C4B5B
:1001E800BB601C4B7B601C4A1A4BD31A9B103B60AC
:1001F8000023FB600AE07A68131D7B60BB68191D49
:10020800B96012681A60FB680133FB60FA683B68E2
:100218009A42F0D3114BBB60114A104BD31A9B1072
:100228003B600023FB6007E0BB681A1DBA60002230
:100238001A60FB680133FB60FA683B689A42F3D3A3
:10024800FFF7BCFFFFF79CFF00BF1037BD4680BD1E
:10025800800200080000002008000020080000209C
:100268001000002080B400AF00BFBD4680BC7047BE
:08027800050000000000022057
:0802800005000000060000006B
:040000050800018866
:00000001FF
